{
  "contractName": "Questionpaper",
  "abi": [
    {
      "inputs": [],
      "stateMutability": "nonpayable",
      "type": "constructor"
    },
    {
      "inputs": [],
      "name": "examController",
      "outputs": [
        {
          "internalType": "address",
          "name": "",
          "type": "address"
        }
      ],
      "stateMutability": "view",
      "type": "function"
    },
    {
      "inputs": [
        {
          "internalType": "address",
          "name": "_userAddress",
          "type": "address"
        },
        {
          "internalType": "string",
          "name": "_name",
          "type": "string"
        },
        {
          "internalType": "enum Questionpaper.Role",
          "name": "_role",
          "type": "uint8"
        },
        {
          "internalType": "string",
          "name": "_email",
          "type": "string"
        },
        {
          "internalType": "string",
          "name": "_contactNumber",
          "type": "string"
        }
      ],
      "name": "registerUser",
      "outputs": [],
      "stateMutability": "nonpayable",
      "type": "function"
    },
    {
      "inputs": [
        {
          "internalType": "address",
          "name": "_userAddress",
          "type": "address"
        }
      ],
      "name": "getUser",
      "outputs": [
        {
          "internalType": "uint256",
          "name": "",
          "type": "uint256"
        },
        {
          "internalType": "string",
          "name": "",
          "type": "string"
        },
        {
          "internalType": "enum Questionpaper.Role",
          "name": "",
          "type": "uint8"
        },
        {
          "internalType": "string",
          "name": "",
          "type": "string"
        },
        {
          "internalType": "string",
          "name": "",
          "type": "string"
        }
      ],
      "stateMutability": "view",
      "type": "function"
    },
    {
      "inputs": [],
      "name": "getAllUsers",
      "outputs": [
        {
          "internalType": "address[]",
          "name": "",
          "type": "address[]"
        }
      ],
      "stateMutability": "view",
      "type": "function"
    },
    {
      "inputs": [
        {
          "internalType": "address",
          "name": "_userAddress",
          "type": "address"
        }
      ],
      "name": "removeUser",
      "outputs": [],
      "stateMutability": "nonpayable",
      "type": "function"
    },
    {
      "inputs": [
        {
          "internalType": "string",
          "name": "_paperId",
          "type": "string"
        },
        {
          "internalType": "string",
          "name": "_fileCid",
          "type": "string"
        },
        {
          "internalType": "string",
          "name": "_fileType",
          "type": "string"
        },
        {
          "internalType": "string",
          "name": "_description",
          "type": "string"
        },
        {
          "internalType": "uint256",
          "name": "_size",
          "type": "uint256"
        },
        {
          "internalType": "address",
          "name": "_teacher",
          "type": "address"
        }
      ],
      "name": "raisePaperRequest",
      "outputs": [],
      "stateMutability": "nonpayable",
      "type": "function"
    }
  ],
  "bytecode": "0x608060405234801561001057600080fd5b5033600760006101000a81548173ffffffffffffffffffffffffffffffffffffffff021916908373ffffffffffffffffffffffffffffffffffffffff160217905550611b04806100616000396000f3fe608060405234801561001057600080fd5b50600436106100625760003560e01c80636f77926b146100675780638b97a9f81461009b57806398575188146100b9578063b2f33580146100d5578063ca162214146100f1578063e2842d791461010d575b600080fd5b610081600480360381019061007c9190611146565b61012b565b60405161009295949392919061129c565b60405180910390f35b6100a3610452565b6040516100b09190611313565b60405180910390f35b6100d360048036038101906100ce9190611146565b610478565b005b6100ef60048036038101906100ea919061148f565b610820565b005b61010b600480360381019061010691906115b1565b610b25565b005b610115610f63565b604051610122919061173e565b60405180910390f35b6000606060006060806000808773ffffffffffffffffffffffffffffffffffffffff1673ffffffffffffffffffffffffffffffffffffffff16815260200190815260200160002060050160009054906101000a900460ff166101c2576040517f08c379a00000000000000000000000000000000000000000000000000000000081526004016101b9906117ac565b60405180910390fd5b60008060008873ffffffffffffffffffffffffffffffffffffffff1673ffffffffffffffffffffffffffffffffffffffff1681526020019081526020016000206040518060c001604052908160008201548152602001600182018054610227906117fb565b80601f0160208091040260200160405190810160405280929190818152602001828054610253906117fb565b80156102a05780601f10610275576101008083540402835291602001916102a0565b820191906000526020600020905b81548152906001019060200180831161028357829003601f168201915b505050505081526020016002820160009054906101000a900460ff1660028111156102ce576102cd611225565b5b60028111156102e0576102df611225565b5b81526020016003820180546102f4906117fb565b80601f0160208091040260200160405190810160405280929190818152602001828054610320906117fb565b801561036d5780601f106103425761010080835404028352916020019161036d565b820191906000526020600020905b81548152906001019060200180831161035057829003601f168201915b50505050508152602001600482018054610386906117fb565b80601f01602080910402602001604051908101604052809291908181526020018280546103b2906117fb565b80156103ff5780601f106103d4576101008083540402835291602001916103ff565b820191906000526020600020905b8154815290600101906020018083116103e257829003601f168201915b505050505081526020016005820160009054906101000a900460ff161515151581525050905080600001518160200151826040015183606001518460800151955095509550955095505091939590929450565b600760009054906101000a900473ffffffffffffffffffffffffffffffffffffffff1681565b600760009054906101000a900473ffffffffffffffffffffffffffffffffffffffff1673ffffffffffffffffffffffffffffffffffffffff163373ffffffffffffffffffffffffffffffffffffffff1614610508576040517f08c379a00000000000000000000000000000000000000000000000000000000081526004016104ff9061189f565b60405180910390fd5b6000808273ffffffffffffffffffffffffffffffffffffffff1673ffffffffffffffffffffffffffffffffffffffff16815260200190815260200160002060050160009054906101000a900460ff16610596576040517f08c379a000000000000000000000000000000000000000000000000000000000815260040161058d906117ac565b60405180910390fd5b6000808273ffffffffffffffffffffffffffffffffffffffff1673ffffffffffffffffffffffffffffffffffffffff1681526020019081526020016000206000808201600090556001820160006105ed9190610ff1565b6002820160006101000a81549060ff02191690556003820160006106119190610ff1565b6004820160006106219190610ff1565b6005820160006101000a81549060ff02191690555050600260008273ffffffffffffffffffffffffffffffffffffffff1673ffffffffffffffffffffffffffffffffffffffff16815260200190815260200160002060009054906101000a900460ff16156106d957600260008273ffffffffffffffffffffffffffffffffffffffff1673ffffffffffffffffffffffffffffffffffffffff16815260200190815260200160002060006101000a81549060ff02191690555b600160008273ffffffffffffffffffffffffffffffffffffffff1673ffffffffffffffffffffffffffffffffffffffff16815260200190815260200160002060009054906101000a900460ff161561077b57600160008273ffffffffffffffffffffffffffffffffffffffff1673ffffffffffffffffffffffffffffffffffffffff16815260200190815260200160002060006101000a81549060ff02191690555b600360008273ffffffffffffffffffffffffffffffffffffffff1673ffffffffffffffffffffffffffffffffffffffff16815260200190815260200160002060009054906101000a900460ff161561081d57600360008273ffffffffffffffffffffffffffffffffffffffff1673ffffffffffffffffffffffffffffffffffffffff16815260200190815260200160002060006101000a81549060ff02191690555b50565b600760009054906101000a900473ffffffffffffffffffffffffffffffffffffffff1673ffffffffffffffffffffffffffffffffffffffff163373ffffffffffffffffffffffffffffffffffffffff16146108b0576040517f08c379a00000000000000000000000000000000000000000000000000000000081526004016108a79061189f565b60405180910390fd5b6004866040516108c091906118fb565b908152602001604051809103902060040160019054906101000a900460ff161561091f576040517f08c379a00000000000000000000000000000000000000000000000000000000081526004016109169061195e565b60405180910390fd5b600260008273ffffffffffffffffffffffffffffffffffffffff1673ffffffffffffffffffffffffffffffffffffffff16815260200190815260200160002060009054906101000a900460ff166109ab576040517f08c379a00000000000000000000000000000000000000000000000000000000081526004016109a2906119ca565b60405180910390fd5b6040518060c00160405280868152602001858152602001848152602001838152602001600060018111156109e2576109e1611225565b5b8152602001600115158152506004876040516109fe91906118fb565b90815260200160405180910390206000820151816000019080519060200190610a28929190611031565b506020820151816001019080519060200190610a45929190611031565b506040820151816002019080519060200190610a62929190611031565b506060820151816003015560808201518160040160006101000a81548160ff02191690836001811115610a9857610a97611225565b5b021790555060a08201518160040160016101000a81548160ff02191690831515021790555090505080600587604051610ad191906118fb565b908152602001604051809103902060006101000a81548173ffffffffffffffffffffffffffffffffffffffff021916908373ffffffffffffffffffffffffffffffffffffffff160217905550505050505050565b600760009054906101000a900473ffffffffffffffffffffffffffffffffffffffff1673ffffffffffffffffffffffffffffffffffffffff163373ffffffffffffffffffffffffffffffffffffffff1614610bb5576040517f08c379a0000000000000000000000000000000000000000000000000000000008152600401610bac9061189f565b60405180910390fd5b6000808673ffffffffffffffffffffffffffffffffffffffff1673ffffffffffffffffffffffffffffffffffffffff16815260200190815260200160002060050160009054906101000a900460ff1615610c44576040517f08c379a0000000000000000000000000000000000000000000000000000000008152600401610c3b90611a36565b60405180910390fd5b6040518060c00160405280600860008154610c5e90611a85565b9190508190558152602001858152602001846002811115610c8257610c81611225565b5b8152602001838152602001828152602001600115158152506000808773ffffffffffffffffffffffffffffffffffffffff1673ffffffffffffffffffffffffffffffffffffffff168152602001908152602001600020600082015181600001556020820151816001019080519060200190610cfe929190611031565b5060408201518160020160006101000a81548160ff02191690836002811115610d2a57610d29611225565b5b02179055506060820151816003019080519060200190610d4b929190611031565b506080820151816004019080519060200190610d68929190611031565b5060a08201518160050160006101000a81548160ff0219169083151502179055509050506006859080600181540180825580915050600190039060005260206000200160009091909190916101000a81548173ffffffffffffffffffffffffffffffffffffffff021916908373ffffffffffffffffffffffffffffffffffffffff16021790555060006002811115610e0357610e02611225565b5b836002811115610e1657610e15611225565b5b1415610e79576001600260008773ffffffffffffffffffffffffffffffffffffffff1673ffffffffffffffffffffffffffffffffffffffff16815260200190815260200160002060006101000a81548160ff021916908315150217905550610f5c565b60016002811115610e8d57610e8c611225565b5b836002811115610ea057610e9f611225565b5b1415610f025760018060008773ffffffffffffffffffffffffffffffffffffffff1673ffffffffffffffffffffffffffffffffffffffff16815260200190815260200160002060006101000a81548160ff021916908315150217905550610f5b565b6001600360008773ffffffffffffffffffffffffffffffffffffffff1673ffffffffffffffffffffffffffffffffffffffff16815260200190815260200160002060006101000a81548160ff0219169083151502179055505b5b5050505050565b60606006805480602002602001604051908101604052809291908181526020018280548015610fe757602002820191906000526020600020905b8160009054906101000a900473ffffffffffffffffffffffffffffffffffffffff1673ffffffffffffffffffffffffffffffffffffffff1681526020019060010190808311610f9d575b5050505050905090565b508054610ffd906117fb565b6000825580601f1061100f575061102e565b601f01602090049060005260206000209081019061102d91906110b7565b5b50565b82805461103d906117fb565b90600052602060002090601f01602090048101928261105f57600085556110a6565b82601f1061107857805160ff19168380011785556110a6565b828001600101855582156110a6579182015b828111156110a557825182559160200191906001019061108a565b5b5090506110b391906110b7565b5090565b5b808211156110d05760008160009055506001016110b8565b5090565b6000604051905090565b600080fd5b600080fd5b600073ffffffffffffffffffffffffffffffffffffffff82169050919050565b6000611113826110e8565b9050919050565b61112381611108565b811461112e57600080fd5b50565b6000813590506111408161111a565b92915050565b60006020828403121561115c5761115b6110de565b5b600061116a84828501611131565b91505092915050565b6000819050919050565b61118681611173565b82525050565b600081519050919050565b600082825260208201905092915050565b60005b838110156111c65780820151818401526020810190506111ab565b838111156111d5576000848401525b50505050565b6000601f19601f8301169050919050565b60006111f78261118c565b6112018185611197565b93506112118185602086016111a8565b61121a816111db565b840191505092915050565b7f4e487b7100000000000000000000000000000000000000000000000000000000600052602160045260246000fd5b6003811061126557611264611225565b5b50565b600081905061127682611254565b919050565b600061128682611268565b9050919050565b6112968161127b565b82525050565b600060a0820190506112b1600083018861117d565b81810360208301526112c381876111ec565b90506112d2604083018661128d565b81810360608301526112e481856111ec565b905081810360808301526112f881846111ec565b90509695505050505050565b61130d81611108565b82525050565b60006020820190506113286000830184611304565b92915050565b600080fd5b600080fd5b7f4e487b7100000000000000000000000000000000000000000000000000000000600052604160045260246000fd5b611370826111db565b810181811067ffffffffffffffff8211171561138f5761138e611338565b5b80604052505050565b60006113a26110d4565b90506113ae8282611367565b919050565b600067ffffffffffffffff8211156113ce576113cd611338565b5b6113d7826111db565b9050602081019050919050565b82818337600083830152505050565b6000611406611401846113b3565b611398565b90508281526020810184848401111561142257611421611333565b5b61142d8482856113e4565b509392505050565b600082601f83011261144a5761144961132e565b5b813561145a8482602086016113f3565b91505092915050565b61146c81611173565b811461147757600080fd5b50565b60008135905061148981611463565b92915050565b60008060008060008060c087890312156114ac576114ab6110de565b5b600087013567ffffffffffffffff8111156114ca576114c96110e3565b5b6114d689828a01611435565b965050602087013567ffffffffffffffff8111156114f7576114f66110e3565b5b61150389828a01611435565b955050604087013567ffffffffffffffff811115611524576115236110e3565b5b61153089828a01611435565b945050606087013567ffffffffffffffff811115611551576115506110e3565b5b61155d89828a01611435565b935050608061156e89828a0161147a565b92505060a061157f89828a01611131565b9150509295509295509295565b6003811061159957600080fd5b50565b6000813590506115ab8161158c565b92915050565b600080600080600060a086880312156115cd576115cc6110de565b5b60006115db88828901611131565b955050602086013567ffffffffffffffff8111156115fc576115fb6110e3565b5b61160888828901611435565b94505060406116198882890161159c565b935050606086013567ffffffffffffffff81111561163a576116396110e3565b5b61164688828901611435565b925050608086013567ffffffffffffffff811115611667576116666110e3565b5b61167388828901611435565b9150509295509295909350565b600081519050919050565b600082825260208201905092915050565b6000819050602082019050919050565b6116b581611108565b82525050565b60006116c783836116ac565b60208301905092915050565b6000602082019050919050565b60006116eb82611680565b6116f5818561168b565b93506117008361169c565b8060005b8381101561173157815161171888826116bb565b9750611723836116d3565b925050600181019050611704565b5085935050505092915050565b6000602082019050818103600083015261175881846116e0565b905092915050565b7f55736572206e6f7420666f756e64000000000000000000000000000000000000600082015250565b6000611796600e83611197565b91506117a182611760565b602082019050919050565b600060208201905081810360008301526117c581611789565b9050919050565b7f4e487b7100000000000000000000000000000000000000000000000000000000600052602260045260246000fd5b6000600282049050600182168061181357607f821691505b60208210811415611827576118266117cc565b5b50919050565b7f4f6e6c79206578616d436f6e74726f6c6c65722063616e20706572666f726d2060008201527f7468697320616374696f6e000000000000000000000000000000000000000000602082015250565b6000611889602b83611197565b91506118948261182d565b604082019050919050565b600060208201905081810360008301526118b88161187c565b9050919050565b600081905092915050565b60006118d58261118c565b6118df81856118bf565b93506118ef8185602086016111a8565b80840191505092915050565b600061190782846118ca565b915081905092915050565b7f506170657220616c726561647920657869737473000000000000000000000000600082015250565b6000611948601483611197565b915061195382611912565b602082019050919050565b600060208201905081810360008301526119778161193b565b9050919050565b7f54656163686572206e6f74207265676973746572656400000000000000000000600082015250565b60006119b4601683611197565b91506119bf8261197e565b602082019050919050565b600060208201905081810360008301526119e3816119a7565b9050919050565b7f5573657220616c72656164792072656769737465726564000000000000000000600082015250565b6000611a20601783611197565b9150611a2b826119ea565b602082019050919050565b60006020820190508181036000830152611a4f81611a13565b9050919050565b7f4e487b7100000000000000000000000000000000000000000000000000000000600052601160045260246000fd5b6000611a9082611173565b91507fffffffffffffffffffffffffffffffffffffffffffffffffffffffffffffffff821415611ac357611ac2611a56565b5b60018201905091905056fea26469706673582212202a72f4122383cbce41e9e3ffc94974acde5cc3c0b3b101a15af1647dc1bd8bbc64736f6c634300080b0033",
  "immutableReferences": {},
  "source": "//SMART CONTRACT CODE\r\n\r\n// SPDX-License-Identifier: MIT\r\npragma solidity ^0.8;\r\n\r\ncontract Questionpaper{\r\n    \r\n     enum PaperStatus { ASSIGNED,UPLOADED }\r\n     enum Role { Teacher, Superintendent, Center }\r\n\r\n    struct User {\r\n        uint256 id;\r\n        string name;\r\n        Role role;\r\n        string email;\r\n        string contactNumber;\r\n        bool exists;\r\n    }\r\n\r\n     struct Paper{\r\n        string fileCid;\r\n        string fileType;\r\n        string description;\r\n        uint256 size;\r\n        PaperStatus status;\r\n        bool exists;\r\n    }\r\n\r\n   mapping(address => User) private users;\r\n   mapping(address => bool) private superintendents;\r\n   mapping(address => bool) private teachers;\r\n   mapping(address => bool) private centers;\r\n   mapping(string => Paper) private papers; //paperid->paper mapping\r\n   mapping(string => address) private AssignedTeacher; //paperid->teacheraddress\r\n\r\n    address[] private userList;\r\n    address public examController;\r\n    uint256 private userCount;\r\n\r\n    \r\n    modifier onlyExamController() {\r\n        require(msg.sender == examController, \"Only examController can perform this action\");\r\n        _;\r\n    }\r\n    \r\n    constructor() {\r\n        examController = msg.sender;\r\n    }\r\n\r\n    function registerUser(address _userAddress, string memory _name, Role _role, string memory _email, string memory _contactNumber) public onlyExamController {\r\n        require(!users[_userAddress].exists, \"User already registered\");\r\n        users[_userAddress] = User(++userCount, _name, _role, _email, _contactNumber, true);\r\n        userList.push(_userAddress);\r\n        if(_role == Role.Teacher){\r\n             teachers[_userAddress]=true;\r\n        }\r\n        else if(_role == Role.Superintendent){\r\n             superintendents[_userAddress]=true;\r\n        }\r\n        else{\r\n            centers[_userAddress]=true;\r\n        }\r\n    }\r\n\r\n    function getUser(address _userAddress) public view returns (uint256, string memory, Role, string memory, string memory) {\r\n        require(users[_userAddress].exists, \"User not found\");\r\n        User memory user = users[_userAddress];\r\n        return (user.id, user.name, user.role, user.email, user.contactNumber);\r\n    }\r\n\r\n    function getAllUsers() public view returns (address[] memory) {\r\n        return userList;\r\n    }\r\n\r\n    \r\n    function removeUser(address _userAddress) public onlyExamController {\r\n        require(users[_userAddress].exists, \"User not found\");\r\n        delete users[_userAddress];\r\n        if (teachers[_userAddress]) delete teachers[_userAddress];\r\n        if (superintendents[_userAddress]) delete superintendents[_userAddress];\r\n        if (centers[_userAddress]) delete centers[_userAddress];\r\n    }\r\n\r\n function raisePaperRequest(\r\n        string memory _paperId, \r\n        string memory _fileCid, \r\n        string memory _fileType, \r\n        string memory _description, \r\n        uint256 _size, \r\n        address _teacher\r\n    ) public onlyExamController {\r\n        require(!papers[_paperId].exists, \"Paper already exists\");\r\n        require(teachers[_teacher], \"Teacher not registered\");\r\n\r\n        papers[_paperId] = Paper({\r\n            fileCid: _fileCid,\r\n            fileType: _fileType,\r\n            description: _description,\r\n            size: _size,\r\n            status: PaperStatus.ASSIGNED,\r\n            exists: true\r\n        });\r\n\r\n        AssignedTeacher[_paperId] = _teacher;\r\n    }\r\n\r\n}\r\n\r\n",
  "sourcePath": "D:\\truffle - Copy\\contracts\\UserProfile.sol",
  "compiler": {
    "name": "solc",
    "version": "0.8.11+commit.d7f03943.Emscripten.clang"
  },
  "schemaVersion": "3.4.16",
  "updatedAt": "2025-03-06T15:27:32.724Z",
  "devdoc": {
    "kind": "dev",
    "methods": {},
    "version": 1
  },
  "userdoc": {
    "kind": "user",
    "methods": {},
    "version": 1
  }
}