{
  "contractName": "UserProfile",
  "abi": [
    {
      "anonymous": false,
      "inputs": [
        {
          "indexed": false,
          "internalType": "uint256",
          "name": "id",
          "type": "uint256"
        },
        {
          "indexed": false,
          "internalType": "string",
          "name": "name",
          "type": "string"
        },
        {
          "indexed": false,
          "internalType": "uint256",
          "name": "age",
          "type": "uint256"
        }
      ],
      "name": "UserCreated",
      "type": "event"
    },
    {
      "anonymous": false,
      "inputs": [
        {
          "indexed": false,
          "internalType": "uint256",
          "name": "id",
          "type": "uint256"
        }
      ],
      "name": "UserDeleted",
      "type": "event"
    },
    {
      "anonymous": false,
      "inputs": [
        {
          "indexed": false,
          "internalType": "uint256",
          "name": "id",
          "type": "uint256"
        },
        {
          "indexed": false,
          "internalType": "string",
          "name": "name",
          "type": "string"
        },
        {
          "indexed": false,
          "internalType": "uint256",
          "name": "age",
          "type": "uint256"
        }
      ],
      "name": "UserUpdated",
      "type": "event"
    },
    {
      "inputs": [],
      "name": "userCount",
      "outputs": [
        {
          "internalType": "uint256",
          "name": "",
          "type": "uint256"
        }
      ],
      "stateMutability": "view",
      "type": "function",
      "constant": true
    },
    {
      "inputs": [
        {
          "internalType": "uint256",
          "name": "",
          "type": "uint256"
        }
      ],
      "name": "users",
      "outputs": [
        {
          "internalType": "uint256",
          "name": "id",
          "type": "uint256"
        },
        {
          "internalType": "string",
          "name": "name",
          "type": "string"
        },
        {
          "internalType": "uint256",
          "name": "age",
          "type": "uint256"
        }
      ],
      "stateMutability": "view",
      "type": "function",
      "constant": true
    },
    {
      "inputs": [
        {
          "internalType": "string",
          "name": "_name",
          "type": "string"
        },
        {
          "internalType": "uint256",
          "name": "_age",
          "type": "uint256"
        }
      ],
      "name": "createUser",
      "outputs": [],
      "stateMutability": "nonpayable",
      "type": "function"
    },
    {
      "inputs": [
        {
          "internalType": "uint256",
          "name": "_id",
          "type": "uint256"
        },
        {
          "internalType": "string",
          "name": "_name",
          "type": "string"
        },
        {
          "internalType": "uint256",
          "name": "_age",
          "type": "uint256"
        }
      ],
      "name": "updateUser",
      "outputs": [],
      "stateMutability": "nonpayable",
      "type": "function"
    },
    {
      "inputs": [
        {
          "internalType": "uint256",
          "name": "_id",
          "type": "uint256"
        }
      ],
      "name": "deleteUser",
      "outputs": [],
      "stateMutability": "nonpayable",
      "type": "function"
    },
    {
      "inputs": [
        {
          "internalType": "uint256",
          "name": "_id",
          "type": "uint256"
        }
      ],
      "name": "getUser",
      "outputs": [
        {
          "components": [
            {
              "internalType": "uint256",
              "name": "id",
              "type": "uint256"
            },
            {
              "internalType": "string",
              "name": "name",
              "type": "string"
            },
            {
              "internalType": "uint256",
              "name": "age",
              "type": "uint256"
            }
          ],
          "internalType": "struct UserProfile.User",
          "name": "",
          "type": "tuple"
        }
      ],
      "stateMutability": "view",
      "type": "function",
      "constant": true
    }
  ],
  "bytecode": "0x608060405234801561001057600080fd5b50610c48806100206000396000f3fe608060405234801561001057600080fd5b50600436106100625760003560e01c806307973ccf14610067578063121ef24314610085578063365b98b2146100a157806338f14845146100d3578063b0467deb146100ef578063b7787de91461011f575b600080fd5b61006f61013b565b60405161007c91906106a3565b60405180910390f35b61009f600480360381019061009a9190610844565b610141565b005b6100bb60048036038101906100b691906108a0565b6101ff565b6040516100ca93929190610955565b60405180910390f35b6100ed60048036038101906100e891906108a0565b6102b1565b005b610109600480360381019061010491906108a0565b610371565b6040516101169190610a3c565b60405180910390f35b61013960048036038101906101349190610a5e565b610494565b005b60015481565b6001600081548092919061015490610afc565b9190505550604051806060016040528060015481526020018381526020018281525060008060015481526020019081526020016000206000820151816000015560208201518160010190805190602001906101b0929190610586565b50604082015181600201559050507f2d4ab3df663b5d79dd05758cbaa4114c7f6ed1ba4ca7bc3c89f0cac0ea1005e660015483836040516101f393929190610955565b60405180910390a15050565b600060205280600052604060002060009150905080600001549080600101805461022890610b74565b80601f016020809104026020016040519081016040528092919081815260200182805461025490610b74565b80156102a15780601f10610276576101008083540402835291602001916102a1565b820191906000526020600020905b81548152906001019060200180831161028457829003601f168201915b5050505050908060020154905083565b6000811180156102c357506001548111155b610302576040517f08c379a00000000000000000000000000000000000000000000000000000000081526004016102f990610bf2565b60405180910390fd5b60008082815260200190815260200160002060008082016000905560018201600061032d919061060c565b600282016000905550507f42a77abd0397855f875460bb511f41935bfa5f396b556d95717d8c2e08334aae8160405161036691906106a3565b60405180910390a150565b61037961064c565b60008211801561038b57506001548211155b6103ca576040517f08c379a00000000000000000000000000000000000000000000000000000000081526004016103c190610bf2565b60405180910390fd5b6000808381526020019081526020016000206040518060600160405290816000820154815260200160018201805461040190610b74565b80601f016020809104026020016040519081016040528092919081815260200182805461042d90610b74565b801561047a5780601f1061044f5761010080835404028352916020019161047a565b820191906000526020600020905b81548152906001019060200180831161045d57829003601f168201915b505050505081526020016002820154815250509050919050565b6000831180156104a657506001548311155b6104e5576040517f08c379a00000000000000000000000000000000000000000000000000000000081526004016104dc90610bf2565b60405180910390fd5b604051806060016040528084815260200183815260200182815250600080858152602001908152602001600020600082015181600001556020820151816001019080519060200190610538929190610586565b50604082015181600201559050507fc1cd96e67887f45d4329ad94e5e332e36f17b9f7b511404a5c3bb7127ffe915f83838360405161057993929190610955565b60405180910390a1505050565b82805461059290610b74565b90600052602060002090601f0160209004810192826105b457600085556105fb565b82601f106105cd57805160ff19168380011785556105fb565b828001600101855582156105fb579182015b828111156105fa5782518255916020019190600101906105df565b5b509050610608919061066d565b5090565b50805461061890610b74565b6000825580601f1061062a5750610649565b601f016020900490600052602060002090810190610648919061066d565b5b50565b60405180606001604052806000815260200160608152602001600081525090565b5b8082111561068657600081600090555060010161066e565b5090565b6000819050919050565b61069d8161068a565b82525050565b60006020820190506106b86000830184610694565b92915050565b6000604051905090565b600080fd5b600080fd5b600080fd5b600080fd5b6000601f19601f8301169050919050565b7f4e487b7100000000000000000000000000000000000000000000000000000000600052604160045260246000fd5b610725826106dc565b810181811067ffffffffffffffff82111715610744576107436106ed565b5b80604052505050565b60006107576106be565b9050610763828261071c565b919050565b600067ffffffffffffffff821115610783576107826106ed565b5b61078c826106dc565b9050602081019050919050565b82818337600083830152505050565b60006107bb6107b684610768565b61074d565b9050828152602081018484840111156107d7576107d66106d7565b5b6107e2848285610799565b509392505050565b600082601f8301126107ff576107fe6106d2565b5b813561080f8482602086016107a8565b91505092915050565b6108218161068a565b811461082c57600080fd5b50565b60008135905061083e81610818565b92915050565b6000806040838503121561085b5761085a6106c8565b5b600083013567ffffffffffffffff811115610879576108786106cd565b5b610885858286016107ea565b92505060206108968582860161082f565b9150509250929050565b6000602082840312156108b6576108b56106c8565b5b60006108c48482850161082f565b91505092915050565b600081519050919050565b600082825260208201905092915050565b60005b838110156109075780820151818401526020810190506108ec565b83811115610916576000848401525b50505050565b6000610927826108cd565b61093181856108d8565b93506109418185602086016108e9565b61094a816106dc565b840191505092915050565b600060608201905061096a6000830186610694565b818103602083015261097c818561091c565b905061098b6040830184610694565b949350505050565b61099c8161068a565b82525050565b600082825260208201905092915050565b60006109be826108cd565b6109c881856109a2565b93506109d88185602086016108e9565b6109e1816106dc565b840191505092915050565b6000606083016000830151610a046000860182610993565b5060208301518482036020860152610a1c82826109b3565b9150506040830151610a316040860182610993565b508091505092915050565b60006020820190508181036000830152610a5681846109ec565b905092915050565b600080600060608486031215610a7757610a766106c8565b5b6000610a858682870161082f565b935050602084013567ffffffffffffffff811115610aa657610aa56106cd565b5b610ab2868287016107ea565b9250506040610ac38682870161082f565b9150509250925092565b7f4e487b7100000000000000000000000000000000000000000000000000000000600052601160045260246000fd5b6000610b078261068a565b91507fffffffffffffffffffffffffffffffffffffffffffffffffffffffffffffffff821415610b3a57610b39610acd565b5b600182019050919050565b7f4e487b7100000000000000000000000000000000000000000000000000000000600052602260045260246000fd5b60006002820490506001821680610b8c57607f821691505b60208210811415610ba057610b9f610b45565b5b50919050565b7f5573657220646f6573206e6f7420657869737400000000000000000000000000600082015250565b6000610bdc6013836108d8565b9150610be782610ba6565b602082019050919050565b60006020820190508181036000830152610c0b81610bcf565b905091905056fea264697066735822122051ae8ab8f9d85578b4d5cc39f36ab7020842c8f00df78188fd06298c4438f74a64736f6c634300080b0033",
  "immutableReferences": {},
  "source": "// SPDX-License-Identifier: MIT\r\npragma solidity ^0.8;\r\n\r\ncontract UserProfile {\r\n    struct User {\r\n        uint id;\r\n        string name;\r\n        uint age;\r\n    }\r\n\r\n    mapping(uint => User) public users;\r\n    uint public userCount;\r\n\r\n    event UserCreated(uint id, string name, uint age);\r\n    event UserUpdated(uint id, string name, uint age);\r\n    event UserDeleted(uint id);\r\n\r\n    function createUser(string memory _name, uint _age) public {\r\n        userCount++;\r\n        users[userCount] = User(userCount, _name, _age);\r\n        emit UserCreated(userCount, _name, _age);  //  Event emitted\r\n    }\r\n\r\n    function updateUser(uint _id, string memory _name, uint _age) public {\r\n        require(_id > 0 && _id <= userCount, \"User does not exist\");\r\n        users[_id] = User(_id, _name, _age);\r\n        emit UserUpdated(_id, _name, _age);  //  Event emitted\r\n    }\r\n\r\n    function deleteUser(uint _id) public {\r\n        require(_id > 0 && _id <= userCount, \"User does not exist\");\r\n        delete users[_id];\r\n        emit UserDeleted(_id);  //  Event emitted\r\n    }\r\n\r\n    function getUser(uint _id) public view returns (User memory) {\r\n        require(_id > 0 && _id <= userCount, \"User does not exist\");\r\n        return users[_id];\r\n    }\r\n}\r\n",
  "sourcePath": "D:\\truffle - Copy\\contracts\\UserProfile.sol",
  "compiler": {
    "name": "solc",
    "version": "0.8.11+commit.d7f03943.Emscripten.clang"
  },
  "schemaVersion": "3.4.16",
  "updatedAt": "2025-02-25T13:15:31.636Z",
  "networkType": "ethereum",
  "devdoc": {
    "kind": "dev",
    "methods": {},
    "version": 1
  },
  "userdoc": {
    "kind": "user",
    "methods": {},
    "version": 1
  }
}